:10000000B3C4CDC4CCC4CBC4CAC473C5C8C4C7C4EC
:10001000C6C4C5C4B8C5C3C4C2C4C1C4C0C420F228
:100020004366D32E9CA336C55E70B738B77061BBEC
:10003000459E8857B15F7EA44DA2815FA47368AED0
:1000400054928A65948167A168838E6B907A7A8FC7
:100050006C91767F8777867D7E828173946C8981AF
:100060007B7D8C6E906F916E8E768777887C7B8996
:100070007684817B847E7E8772916E898566A953A2
:100080009D7D64AB5C83A738C85B6AC72BAF972A9A
:10009000DD5D48F41A94C318C4843ED14A82AE355B
:1000A000C75974B53BB37363B54C979150B06C6945
:1000B000AE5B7DAA489F8C50B06D6BA95D8B8B6841
:1000C00096727F8E68986F848476897B7D877A7C30
:1000D0008C708B7986748F6E8F718F708E73897B25
:1000E0007F85778A738B797C8B7286876B9A6A851A
:1000F0009159B153998161AF5689A533D34B79C0DA
:1001000022C9773BEA3671E10BB8A51FD56A4FD2F9
:100110003C94A237CF4B83AD38BF656BB841A58601
:1001200050BD587AB0459A9942B67754C052849CD3
:100130005C948368A0638E826F956E897F78897BDB
:100140007C897783827A88748F708C748D718A7CB5
:100150007E818081798B738A768977838377877FA5
:1001600076916E898567A752A57269B542A48D3FC5
:10017000D93694B21AE45A46FA119AC906D8793D8A
:10018000D44F73BA3DA6874FC14A929749BC5B7959
:10019000AF40AE7C54C5468CAA39B4804BC1606870
:1001A000BD439D8863987F66A85A957A7A8975873A
:1001B0007E7A89797D887588798382758D76827E4D
:1001C0008478848379847F807A8C708D76867D8034
:1001D000827B838274936D868D5FAB56978656BE05
:1001E00048939E38D44483BF15DF663CFC1598C302
:1001F00012D07748CA5473B6459A934DB4607E9D29
:1002000052A86F6AB443A4884BC64C82AF39B27C03
:100210005AAF6B6AB24C9B8369928363A5628E7AF4
:100220008576887A837A867C7D8679857C808477DA
:10023000887D7C857B837C837D817D86758B7783C0
:100240008279867E7A8A738C728E74838A66A656C9
:100250009E7C5FBC40A38F3CE2289EB20FF4485BBB
:10026000E715B19D2DD3586EB44F8D98599787617E
:10027000A16E7A995BA26E75A64DA38153C3498A7C
:10028000A73DBA68729C6D78A155A07772917B7179
:10029000986B8C7789748A78877689797F87748A56
:1002A0007A7D877A7E8875867E7F7F817E83788A55
:1002B000758581788C738A7B7E877392669B6B834E
:1002C0009356B64BA08257C435B37D44ED08CA8916
:1002D00026F82889C01ECB6F54C8458CA04DA1813B
:1002E000649C76729A688889679F66888E609D7B19
:1002F00060B948969845C0548B8C6E83945BA36D0F
:100300007E8A797D8879837C86768978847D8081F0
:100310007B8776887B7E847E7B877B7F837C817FE7
:100320007F817C847D7E8772916C907681867099C6
:100330005CA662889353BB45A97368BA2ECF546DEF
:10034000D408E7575CD724B48746CB488C9B539E90
:100350007D6D94797690738188728C797D897584AE
:10036000886D907F68A957938C56B74CA173807C99
:100370009160A26789807D7F837C81807F7E847A83
:10038000857D7E8479867B81817E817F817D82806F
:100390007C8184748D7683817E7D886F9665986E6E
:1003A0008784709A5CA959997B6AAE40C34B929E30
:1003B00032E52AA0A329E23B8EA739C35B77AE437F
:1003C000AE6F74986B87847883827889788381791B
:1003D00089748C728E74818D61A858997E67AE463F
:1003E000B65896748A6F956D89817984817B8282F3
:1003F00079867C7D8677867E7D857B81807F7F8107
:100400007F7E817F7F7F85748D738A748E6E946901
:100410009866996A8E7A7A9062AA4DAD6679AA3802
:10042000D13C9F9140DB28B57C54C53FA18A4FC188
:1004300049959057AA65838B72877E7E827D8083E3
:1004400076906E8A846B9F5D997871A250B05896B1
:100450007E6CA54EB452A06D887C7E8772907188A8
:100460007B84778C738A7887778779857A847D8196
:100470007E84768B75877B847B818472946A91728B
:100480008E6C9A639A6992728582729B56B150A162
:10049000766CAD43BC548A9C46C73FA77B64AC5581
:1004A00095895AB4509885649E6891718D7780873C
:1004B000787D8C757B9A57A27864B449A17F5DB929
:1004C00040B169799D55AE52A468888373926A9A47
:1004D000639A6C8B798674906D916F916D90768133
:1004E000837F7B8B6F926E8D787E887689768D6B1D
:1004F0009A63986E8A7988729172858273965DABE1
:100500004EB25991885DB448A7736EAF40BD588A0A
:100510008D629F678A8961A85F8D87679E639965F1
:100520009974769C5F90876C829E4BAD755CC43BE2
:10053000A38E43D234AB7F59C139B85E888C64A294
:100540005BA3609A69946E8B788579897491679CB6
:10055000658F7E7390767A95629E6B848772906EBB
:10056000926F8F718D7386817888788779896DA075
:1005700053B347B84BAC6582965BA55E93855CB977
:100580003FB6647B9C5A9C7577906E91757D91689F
:10059000956C926A947D63B945A18165939047C13A
:1005A0006068C435A6923ADD2BAD8749D12DBA6D6E
:1005B00068B33FBD509D7383808274916D8A7F7D47
:1005C0007F8B699B6A848E629F6B7D9C55A76A7C3A
:1005D000985BA0688F748C74877F798971916D9313
:1005E0006B9960A84FB34BB15795816BA2599F701F
:1005F0007F8D65A656A0766EA55A967A778B7B7B03
:100600008C738D7485798D6A92805DC82ABA7C530B
:10061000B46E59CB4089B32FBE7551CD35A8874BE9
:10062000D02FBC6A68B938BD588E886B97717F8BA4
:10063000737F9066947C7493717C9956A7678296B9
:1006400058A96C6EAF45AF65887F7F8081807A88BE
:10065000758C6D99629F659763A25E937C71A153BF
:10066000AA638D7D7D827C857981886E98698A8375
:10067000777D9360A06E7F8E6D8F7A72957963C45B
:1006800026CC6758C9487AC22AB09438CD596EBA78
:100690003CAD7763B546AA7071A846B8529A7A7194
:1006A0009C65898A6B898B629D776EA25F8F866558
:1006B000A26682955CA17173A1599A767D847D852D
:1006C00072946C8D7786709C5BA3668D7C8571902F
:1006D0007B719D5AA36A828B6F8D7880827A8A742F
:1006E000888074946A859457AA6A73AE45AE6A7519
:1006F000A25B85AE2AD95069CE2C9CAE22CF714B1D
:10070000D04981AD3DB8637C9B59A665898B5EB1AC
:1007100047AE6A75A8509B895C9E7C65A26E74A4E6
:10072000579A7C7095708090669971808C6F8B79E8
:10073000837C8086738F75837F82769068957481C1
:10074000837E7C887A78956597747F8B718B7784AC
:100750007F7B887784866E9868898D5AAC637EA487
:1007600046B66474AD43A9883FD94573D510C2938A
:1007700023E65060D2349A9C45B76080965DA463AE
:10078000907E719E51B06179AD42AC8055B468697C
:10079000B254889D51A77175966D828F6696777A4F
:1007A0008F6E8E74887980867684896A9A6B878248
:1007B000768C787E8C6F8E7587758F6D8E79818043
:1007C000817C82817B7F897289836C9D648B8D564D
:1007D000B8508E9B46BF5976BA2CC2734ADC36821B
:1007E000CF08D87A34E54373C335A7865EA36986FC
:1007F0008671926E8E787E8D64A55F869D49AE7AF5
:1008000056C0517EAA4D979251B0657F926E8191EC
:1008100064957A758F767E8778827F827B838375F5
:100820008E728A778878847D85748F718A768974D0
:10083000897D7A867E788F6E8F7583847198619BAF
:100840007277A14ABA5682AC34C95D65CF1EC281A7
:1008500038E53977DA04D67D36DD4D69C934A38BA6
:100860005BA36D82877194679770818F61A46481A7
:100870009F4DA7824EC74B83A84A9D8A5AA4746D88
:10088000A163888A6C8D80738D7C768F7482857964
:10089000827F817A887787768B73897986768B7465
:1008A000877D807F817F7E8182778E708D787F8C3F
:1008B00064A754A2746BB13DBD6071BE25D15B626B
:1008C000D31DBD8A2CF4288AC615CD7B3FD452692E
:1008D000C736A38C58A4707C8B7686788A73897F00
:1008E00073956C859061978656B8587DA94A9F8408
:1008F000629A825CB54F9A7C7687846E966E887E0B
:100900007F7D8579867C817F807F82798B73897DED
:100910007C847E7B88748B76877A85788B6F946BEA
:1009200090767F8E62AB50A4736AB733C85579B99D
:1009300024DA4A77C321C900000000370000000014
:10094000003800000000003600020202020202022B
:100950000202020102040810202004100801020013
:10096000000400000000000011241FBECFE5D2E00B
:10097000DEBFCDBF20E0A4E6B0E001C01D92A537E8
:10098000B207E1F710E0A0E6B0E0EEE5F0E102C06A
:1009900005900D92A436B107D9F723D15EC330CBB1
:1009A000823081F018F4813051F00895833019F0CD
:1009B000843009F008958CB58F7D8CBD08958AB57B
:1009C0008F7702C08AB58F7D8ABD0895CF93DF935C
:1009D000282F30E0F901E35AF64F8491F901ED5ADE
:1009E000F64FD491F901E75BF64FC491CC2389F01F
:1009F0008111D6DFEC2FF0E0EE0FFF1FED5BF64F1D
:100A0000A591B491EC91ED2381E090E021F480E098
:100A100002C080E090E0DF91CF9108951F93CF93C3
:100A2000DF93282F30E0F901E35AF64F8491F90162
:100A3000ED5AF64FD491F901E75BF64FC491CC2300
:100A4000C1F0162F8111ACDFEC2FF0E0EE0FFF1F8D
:100A5000E35CF64FA591B4918FB7F894111105C0DE
:100A60009C91ED2FE095E92302C0EC91ED2BEC93E6
:100A70008FBFDF91CF911F910895CF93DF9390E0C7
:100A8000FC01ED5AF64F2491FC01E75BF64F84918F
:100A9000882361F190E0880F991FFC01E95CF64F13
:100AA000C591D491FC01E35CF64FA591B49161111D
:100AB00009C09FB7F8948881209582238883EC91A0
:100AC0002E230BC0623061F49FB7F8943881822FD7
:100AD000809583238883EC912E2B2C939FBF06C097
:100AE0008FB7F894E8812E2B28838FBFDF91CF91A9
:100AF00008951F920F920FB60F9211242F933F93D8
:100B00008F939F93AF93BF9380916B0090916C00F4
:100B1000A0916D00B0916E0030916A0020E3230F28
:100B20002D3720F44096A11DB11D05C023EB230FE6
:100B30004196A11DB11D20936A0080936B00909394
:100B40006C00A0936D00B0936E0080916600909150
:100B50006700A0916800B09169000196A11DB11DC8
:100B60008093660090936700A0936800B09369003B
:100B7000BF91AF919F918F913F912F910F900FBE99
:100B80000F901F9018951F920F920FB60F9211247D
:100B90002F938F939F93EF93FF93E0916400F091D5
:100BA0006500E25EFF4FE491EBBD8091640090919F
:100BB00065000196893129E092072CF49093650035
:100BC0008093640004C01092650010926400FF914D
:100BD000EF919F918F912F910F900FBE0F901F90CB
:100BE000189578948AB582608ABD8AB581608ABD7D
:100BF00083B7826083BF83B7816083BF89B7826018
:100C000089BF80B7826080BF3298319A309A379A14
:100C10008CB580648CBD61E082E02FDF61E081E013
:100C20002CDF62E080E029DF62E083E026DF61E024
:100C300084E023DF80E0CADEC1E0892B09F4C0E054
:100C4000C093720083E0C2DE21E0892B09F420E02A
:100C500020937100C1110DC02111D1C060E081E06D
:100C6000DDDE60E082E0DADE109274001092730044
:100C700008C02111D3C082E090E09093740080936B
:100C8000730080E49FE19093700080936F0087B5BC
:100C9000826087BD83E190E00197F1F707B400FE21
:100CA000FDCF87B5846087BD19BE81E080BF80E637
:100CB0008CBD8FEF8DBD8FE78BBD61E084E0DDDE05
:100CC00083E08ABD80916F009091700082319A47D5
:100CD000C4F089E083BF20916F0030917000B901AA
:100CE00037FF02C06F5F7F4F75956795CB01770F18
:100CF000AA0BBB0BBC01CD01605C7D4B804F9F4FAD
:100D000017C08AE083BF20916F0030917000B90155
:100D100037FF02C06F5F7F4F75956795CB01770FE7
:100D2000AA0BBB0BBC01CD01685B77418E4F9F4F77
:100D3000032E000C440B550BD0D0215029BD80E16F
:100D400089BF82E0C82ED12CE12CF12C9BE0892EAA
:100D5000912CA12CB12CC0E0D0E080917300909137
:100D60007400892BB9F4ACD0A7019601B6D082E00B
:100D700055DEA6D0A5019401B0D062307105810581
:100D8000910544F481E022DE61E0892B09F060E006
:100D900081E044DE80917300909174008130910570
:100DA00021F461E082E03ADE16C00297B9F488D0FF
:100DB000A701960192D082E031DE82D0A501940194
:100DC0008CD0663071058105910544F481E0FEDD2B
:100DD00061E0892B09F060E081E020DE8091730002
:100DE00090917400039731F461E081E017DE60E0D8
:100DF00082E014DE209709F4B0CF02D9AECF61E0D3
:100E000082E00CDE60E081E009DE81E090E090931A
:100E100074008093730088E59BE135CF61E081E049
:100E2000FDDD60E082E0FADD83E090E09093740005
:100E30008093730084E391E226CFA0E0B0E0E2E289
:100E4000F7E08AC0EC01688179818A819B81611514
:100E500071058105910521F464E279ED8BE597E058
:100E60002DE133EF41E050E038D049015A0127EA43
:100E700031E440E050E04DD069017A01C501B40190
:100E80002CEE34EF4FEF5FEF44D0022F132F9A0177
:100E9000D701C601800F911FA21FB31FB7FF03C068
:100EA0000197A109B04888839983AA83BB83BC01B9
:100EB000CD019F77CDB7DEB7ECE06AC0BEDF089505
:100EC00080E690E0BADF089560936000709361005F
:100ED00080936200909363000895052E97FB16F4AB
:100EE00000940FD057FD05D068D007FC02D046F41F
:100EF00008C050954095309521953F4F4F4F5F4F1B
:100F0000089590958095709561957F4F8F4F9F4F75
:100F1000089568940013E894A0E0B0E0E1E9F7E0F8
:100F20001DC0EFEFE7F959016A015E23550FEE0886
:100F3000FE2C87019B01AC019E23990F660B762F37
:100F4000CB015DD0CDB7DEB7EAE024C02F923F924F
:100F50004F925F926F927F928F929F92AF92BF92C9
:100F6000CF92DF92EF92FF920F931F93CF93DF9375
:100F7000CDB7DEB7CA1BDB0B0FB6F894DEBF0FBED2
:100F8000CDBF09942A88398848885F846E847D841F
:100F90008C849B84AA84B984C884DF80EE80FD8021
:100FA0000C811B81AA81B981CE0FD11D0FB6F89497
:100FB000DEBF0FBECDBFED010895A1E21A2EAA1B20
:100FC000BB1BFD010DC0AA1FBB1FEE1FFF1FA217F9
:100FD000B307E407F50720F0A21BB30BE40BF50BF6
:100FE000661F771F881F991F1A9469F7609570957F
:100FF000809590959B01AC01BD01CF010895DF93D1
:10100000CF939F92A0E49A2E0024D001E001F0013A
:1010100016950795F794E794D794C794B794A79437
:1010200048F41068A20FB31FC41FD51FE61FF71F97
:10103000081E191E220F331F441F551F661F771FDE
:10104000881F991F9A9421F79D01AE01BF01C0012D
:0E10500011249F90CF91DF910895F894FFCF67
:04105E00010000008D
:00000001FF
